:020000040800F2
:10000000602500204D0100086D3A0008E735000822
:10001000FB38000869040008DD7A000800000000D1
:10002000000000000000000000000000815D0008EA
:10003000930C000800000000E14100083D68000842
:100040006701000867010008596A00086701000895
:1000500067010008670100086701000867010008E0
:10006000670100086701000867010008C90B000864
:10007000D10B00086701000867010008D90B0008D0
:1000800067010008670100086701000867010008B0
:1000900067010008670100086701000867010008A0
:1000A0006701000867010008670100086701000890
:1000B0006701000867010008670100086701000880
:1000C0006701000867010008670100086701000870
:1000D0006701000867010008B136000867010008E1
:1000E0006701000867010008B543000867010008C0
:1000F0006701000867010008670100086701000840
:1001000067010008670100088154000867010008C2
:10011000670100086701000867010008670100081F
:10012000670100086701000867010008670100080F
:100130006701000867010008DFF80CD000F082F9C1
:1001400000480047057B00086025002006488047DE
:1001500006480047FEE7FEE7FEE7FEE7FEE7FEE7AC
:10016000FEE7FEE7FEE7FEE7556A000839010008F2
:100170002DE9F05F0546002092469B4688460646DC
:10018000814640241BE0284641464746224600F06F
:1001900012F953465A46C01A914110D311461846D7
:1001A000224600F0F9F82D1A67EB01084F46224667
:1001B0000120002100F0F0F817EB00094E41201E4D
:1001C000A4F10104DFDC484631462A464346BDE837
:1001D000F09F00000649074A0868504343F239027D
:1001E00010440860400870470149086070470000EB
:1001F000000000206D4EC64140EA01039B0703D07A
:1002000009E008C9121F08C0042AFAD203E011F855
:10021000013B00F8013B521EF9D27047D2B201E017
:1002200000F8012B491EFBD270470022F6E710B5FB
:1002300013460A4604461946FFF7F0FF204610BD54
:10024000421C10F8011B0029FBD1801A704780EA7C
:10025000010210B502F00043400022D04A001FD036
:10026000010E01EB1261C0F35600C2F3560240F4D6
:10027000000042F40002A0FB022000047F391404B5
:1002800000D0401C50EA124001D44000491EC2B2C6
:100290000C0604EBD010401C4008802A02D003E07A
:1002A000002010BD20F00100002900DA00201843D2
:1002B00010BD30B480EA010202F0004530F0004287
:1002C00021F0004013D090B1C30DD40DC2F316013C
:1002D000C0F31600E41A41F4000140F400027D343A
:1002E000914201D3641C00E04900002C02DA30BCCA
:1002F000002070474FF400000023914201D3891A77
:10030000034340084FEA4101F7D151B1914202D174
:100310004FF0004105E002D24FF0010101E06FF023
:10032000010103EBC450284430BC00F054B800284D
:1003300001DBC0F10040002901DBC1F10041814235
:1003400001D80120704700207047002801DBC0F170
:100350000040002901DBC1F10041814201D90120A7
:1003600070470020704796230022114600F03CB8E9
:1003700020F00040C10DC0F3160040F400007F29BA
:1003800001DA00207047962903DCC1F19601C840CC
:100390007047963988407047202A04DB203A00FADB
:1003A00002F1002070479140C2F1200320FA03F3CC
:1003B000194390407047202A04DB203A21FA02F0CA
:1003C0000021704721FA02F3D040C2F1200291408F
:1003D0000843194670470029A8BF7047401C4900D0
:1003E00008BF20F00100704710B4B0FA80FC00FA9A
:1003F0000CF050EA010404BF10BC704749B1CCF1C5
:10040000200421FA04F411FA0CF118BF0121214350
:100410000843A3EB0C01CB1D4FEA00614FEA10200B
:1004200042BF002010BC704700EBC35010440029AD
:10043000A4BF10BC7047401C490008BF20F0010059
:1004400010BC7047064C074D06E0E06840F0010321
:1004500094E8070098471034AC42F6D3FFF770FEDB
:100460004083000860830008FEE7000010B50278B2
:100470001C4841680A2A42700AD10C4A4B1ED45CBF
:10048000092C08D100218360D1540122027005E0BB
:10049000064B5A5401E00A23535401314160C068AD
:1004A00010B1BDE81040004710BD00BFAD030020F3
:1004B00010B50446034807F01BF90CB10948C460A5
:1004C00010BD00BF6D040008B0B5064C20780128AF
:1004D00007D100256420257001F072F900F06AFC54
:1004E0002575B0BDEC00002010B50446C06A012897
:1004F00007D1E06D012802D103F005FD13E00120D2
:10050000E0650020A087B4F84200A168206620685A
:1005100003F0D0FC6FF49571013107D24268D20725
:10052000FAD003F021FD18B1012010BD03F0D5BBB6
:10053000002010BD10B50446C06A012807D1E06D47
:10054000012802D103F0DFFC13E00120E065002068
:10055000A087B4F84200A1682066206803F012FC6E
:100560006FF49571013107D24268D207FAD003F0D7
:10057000FBFC18B1012010BD03F0AFBB002010BD83
:10058000F8B504466FF49075002601276DB9206810
:10059000016821F001010160A06D40F01000A0652C
:1005A00020462665676500F0B7FE20680135416882
:1005B000C907EBD0016841F080010160F8BDC06A55
:1005C00001214165816D41F00401816501680A687E
:1005D00042F080020A6000F09FBE0000F8B5C46AD5
:1005E0002068616C0268062922F4006202604BD127
:1005F0002046FFF7C5FFA06A0225E169656400286F
:1006000008BF8900080733D06FF0030000EA9100AB
:10061000A087C1F38100024652B1A38FA769266863
:10062000013A57F82330B360A38F0133A387F3E770
:1006300011F0030211D0A38FD4E90016A769033883
:1006400002EB4602944E57F8233056F822201A4007
:100650008A6050B101300022FAE7216860F003009F
:10066000002210B18A600130FBE72046FFF788FFC7
:100670002068016821F470010160016865F34E3162
:100680000160204600F00AF92046BDE8F84000F07D
:1006900046BE00BFF0B585B0C46A2068016821F489
:1006A00080510160016841F080010160B4F842109E
:1006B0000A075BD06FF0030202EA9102E287E28F41
:1006C000A4F8402001F1100222F00F02511A026832
:1006D00002F01802102A04D04AB96269602A04D0D4
:1006E00005E06269B2F5803F01D103F0A9FB012367
:1006F000C1F1100289074FEA920118BF03EB920182
:100700000A463AB1E38F656B013A55F8233003F09E
:10071000D6FAF6E70022032902D882600131FAE70F
:100720002046FFF72DFF2068002201A9042A04D0EB
:10073000C36841F822300132F8E7B4F842200023C0
:1007400003329208B4F84050032B0FD8AA420DD9B7
:1007500051F82350B4F84060A76B013347F8265096
:10076000B4F840500135A4F84050EBE7616901F05E
:100770006002602A06D011F4803103D1016821F0B3
:10078000010101600020206501206065204605B060
:10079000BDE8F04000F05CBE70B502680446C36975
:1007A000806A0125116865F34E3111600221616490
:1007B0000028116841F00101116008BF9B00102B57
:1007C00013D306208C4DA16908326064A06C856348
:1007D000884D05634FF6FC7505EA930300F0B0FF02
:1007E00030B3A06D40F004003CE0002B43D09808EB
:1007F000014649B1A58FA669013956F82550956083
:10080000A58F0135A587F4E713F0030116D0A38F58
:100810006568A66901EB45011F4D56F8233055F870
:1008200021101940022891600ED801300021F9E70B
:100830002068016841F4006101602BE00021032879
:1008400002D891600130FAE720464FF4917100F030
:10085000F8F82268116858B121F001001060A06D0D
:1008600040F01000A065002020650120606570BD8B
:1008700041F0800010601068022120F470001060C8
:10088000106861F34E301060204600F007F808B1A0
:10089000012070BD002070BD18800008F0B585B043
:1008A000B0F8424054B1A208102C0CD3D0E90D137B
:1008B00022F0030200F06EF8002161E001214165A1
:1008C000002101655CE001682F4D304E0B681D4032
:1008D000C4F11003B54201D0602D05D10D6825F497
:1008E000700545EA03550D6013F0030318BF01239B
:1008F00003EB940425464DB1C68F476B013D57F875
:1009000026608E60C68F0136C687F4E70025042C6A
:1009100002D28D600134FAE71D4C01340FD24D68CC
:10092000ED07FAD00C6844F080040C60002401AD9F
:10093000042C11D0CE6845F824600134F8E70A6829
:1009400022F001020A60816D41F0100181650021F1
:1009500001650121416513E0D11801AA61B1B0F828
:100960004030846B20CA013944F82350B0F840303D
:100970000133A0F84030F1E7002101220165426512
:10098000084605B0F0BD00BF78000100100001006E
:10099000DEFEFFFF2DE9F843984643699146044681
:1009A0000268806C134E154DE76C0663124E03F01F
:1009B0006003602B3D638663BE6303D0136843F01E
:1009C0000103136008324B4600F0BAFE08B103F091
:1009D000D2FA2168E06C42464B460C3100F0B0FE82
:1009E00008B103F0C8FA2068016841F4C051016001
:1009F000BDE8F883DD050008BF050008950600087E
:100A0000C268EAB199B1B1F5802F19D111680068B7
:100A1000C1635168816391684163D1680163116961
:100A2000C1615169816191694161D16907E01168D2
:100A30000068C1615168816191684161D16801615B
:100A40007047F8B50C46054601F09EF80646671C4F
:100A500028684068C0071CBF0020F8BD002FF7D0F1
:100A600001F092F8811B0120A14201D8002CEFD1A6
:100A7000F8BD0122062A06D811460132B0EB011F4B
:100A8000F8D8080100E00020C0B2704770B5052911
:100A900055D804461546DFE801F0030D172029322A
:100AA00003F076F84BD1A078012848D1E5782046AC
:100AB0000C213EE003F06CF841D1A07802283ED131
:100AC000E57820461C2134E0012B2BD103F060F89F
:100AD00035D1A078032830D031E0012B26D103F0A6
:100AE00057F82CD1A078042827D028E0012B0FD16B
:100AF00003F04EF823D1A078052810D01FE0012B79
:100B000006D103F045F81AD1A078062807D016E0E0
:100B1000E6782046102100F014F886420FD1A08814
:100B200028800AE0E5782046202102E0E57820468A
:100B3000102100F006F8854201D1012070BD00208F
:100B400070BD10B500220023914204BFD8B210BD81
:100B5000032A1CBF845C63400132F5E701200021B9
:100B600006F0ACBEB0B5052A88BFB0BD04460D4640
:100B7000DFE802F00C151E03030320461021FFF7E7
:100B8000E0FFE07028462146102219E020460C21A3
:100B9000FFF7D7FFE070284621460C2210E02046E0
:100BA0001C21FFF7CEFFE070284621461C2207E0FB
:100BB00020462021FFF7C5FFE0702846214620226D
:100BC000BDE8B040FFF718BB4248806C00F00CBD98
:100BD0004048C06C00F008BD014800F005BD00BFF2
:100BE000B41A002010B51049836C104C01F1640256
:100BF00023F0030302650268A24238BF04F57E7148
:100C000019441423C1646FF00701A24251FA82F122
:100C1000B1FBF3F128BF0731012201F01F0102FAF5
:100C200001F1416510BD00BF1C08024008040240EC
:100C300010B5436807490124583003F07F0301F1E0
:100C40004002013B01EB830103F0030304FA03F3C9
:100C50000EC010BD00090240F0B500F1500670CE84
:100C6000656016B1D0E91745656004688568D0E90C
:100C70001160012700F01C00102D07FA00F07060D1
:100C80000846636008BF1046A06008BF0A46E260DD
:100C9000F0BD704770B50F4C0546204600F064FA71
:100CA00008B100F01DF80C4B202004220126002181
:100CB000606120466662094EC4E9003204F1080210
:100CC00062C200F02DFB18B1BDE8704000F008B81A
:100CD00070BD00BFDC1800200018005860800008BC
:100CE000FEE70000B0B5DA4A536843F4802353604E
:100CF000EFF31083EFF3108472B6402420C9013C57
:100D000020C02506FAD11068C003FCD483F31088F4
:100D1000B0BD00BF70B5CE4E044600F035FF0546AD
:100D20003068C00305D500F02FFF401BA042F7D369
:100D300017E03068C1071CBF012131604CF2FA3165
:100D4000084004D0084948603060012070BD306818
:100D500040035CBF002070BD00F016FF401BA042A6
:100D6000F5D3032070BD00BF201C0020344945F29C
:100D7000AA538A88120412BA50400A88C978120409
:100D800081F0020112BA5A401143084303F0B2B88D
:100D9000002221B110F8013B01395A40F9E7D0B2E5
:100DA0007047002221B110F8013B01395A40F9E7A0
:100DB000D0B2704710B50120FFF7D8FF01280FD13E
:100DC0001F4C0421A01CFFF7E3FFA179884236D114
:100DD0001B48072107F0FEF81A480121017410BDD5
:100DE0000220FFF7C3FF012814D118A4002000211E
:100DF0000022234606F002FC0028F7D1104C042103
:100E0000A01CFFF7C5FFA179884218D10D48012128
:100E1000417410BD0420FFF7A9FF01280FD1084C31
:100E20000A21A01CFFF7B4FF217B884207D10548A7
:100E300001218174E088044988806089C88010BDE0
:100E4000AD030020EC000020A00600200A73746FA0
:100E500070207363616E0A0010B57F4A02F11C03B3
:100E60000022802A09D053F8044C844202D11C6825
:100E70008C4203D020330132F3E79622D0B210BD6A
:100E8000F0B589B00446012913D112480068FFF774
:100E9000ABF9114D002601AF102E17D0B919284615
:100EA00001F035FC08B1FFF71BFFB859A05104361B
:100EB000F2E7424801682160416861608168A16091
:100EC0008849C0684968E060216101E00020206134
:100ED00009B0F0BD8075FF1FA81B00205E490020EF
:100EE000802804D00A781AB120310130F8E7962022
:100EF000C0B2704780B500F04FF87A4841680131C0
:100F000041600020BDE8804000F0A8B82DE9F04F16
:100F100089B0744D4F4EDFF840814FF000092E61CB
:100F200001AC1848864229D820462021FFF77DF9D8
:100F30000020202806D0811911F8012B22542961A4
:100F40000130F6E70DF1040E5FFA89F10DF1140B93
:100F5000064409F101099EE808544A0108EB4111D1
:100F6000C1F804A0C1F808C0C1F80CE0103148F87D
:100F700002309BE88C0881E88C08D2E709B0BDE814
:100F8000F08F00BFFEFF030880B500F005F8BDE854
:100F90008040FFF7BBBF000010B552485349074BD4
:100FA000002201610C68042A04BF446010BD0431B2
:100FB00043F8224001320161F4E700BF381C0020F1
:100FC00010B52549044C01EB401000F108034069BD
:100FD0000ECBE0600EC410BD101C002070B500F0F8
:100FE0008BFC3F483F4D4FF400417E2201600221BF
:100FF000284640F8181F40E90421C0E90121011FDB
:1010000000F0E4FB40B1384C0020002100222346D0
:1010100006F0F4FA0028F7D100F02EFC0D48286104
:1010200000F06AFC0C4E0024B4F5805F0CD030193F
:10103000325929694368012000F028FC10B9286959
:10104000083028610834EFE7BDE8704000F014BCB8
:101050001040005800F003084C08002070B586B01E
:1010600001AC054614212046FFF7DFF8204629464B
:10107000FFF706FF00F040FC19481A4E4FF40041FC
:10108000012201600221304640F8181F7D2140E90D
:101090000412C0E90112011F00F098FB40B1124D8B
:1010A0000020002100222B4606F0A8FA0028F7D1E4
:1010B0000E4800253061182D0CD060196259316935
:1010C0004368012000F0E2FB10B93069083030615C
:1010D0000835F0E706B0BDE8704000F0CDBB00BFBA
:1010E00010400058C80000202A83000800E80308C8
:1010F000F8B50C460978DDE907651170069A617844
:1011000019706188116021796279A77960B141EA2B
:10111000022040EA0740FFF726F93060607AB4F811
:10112000071041EA004015E041EA0220FFF71BF9F1
:10113000012F08BF80F000403060627AE079217AA8
:1011400040EA0120012A05D14042FFF70CF980F066
:10115000004001E0FFF707F92860F8BD4FF47A700E
:1011600000F02EFB06F0BCFCB0B50446012064B1D3
:101170000025E587A4F84050A587606402F063FF6E
:1011800000F0EEF8002025656565B0BDF8B502F009
:1011900031FF31D102F029FE32D00026E687A4F8D3
:1011A0004060676A2568002F08BF9200A4F84220BB
:1011B0002A6860F3C40201202A60C4E90D13206587
:1011C00054492868084008D0202806D0B0F5803F50
:1011D0001CD060281FD0402822D10096E06A012848
:1011E00004D1E06D012839D00120E0656069402814
:1011F00007D102F0F3FE2DE002F0F8FEA065012019
:10120000F8BD206B78B102F007FE22E02046BDE871
:10121000F840FFF769B92046BDE8F840FFF78AB902
:1012200002F0E0FEEAE72868012161F3C4002860CB
:101230002046A168FFF7E4FB02F0FEFE0091009952
:10124000013900910099C9B14168C907F7D002F08E
:1012500082FE0160606908B102F075FC02F072FE66
:1012600007D0D4E90D1382082046FFF793FB002036
:10127000F8BD0120606500202065F8BD02F007FD83
:10128000F8BD00BFB0B502F0B5FE31D102F0ADFD42
:1012900032D00020E08702F045FE08BF920002F045
:1012A000DBFD1C4922650068084008D0202806D0D4
:1012B000B0F5803F21D0602824D0402827D1E06AB3
:1012C000012804D1E06D012806D00120E06502F07C
:1012D000C1FE01D002F037FC0220D4E90D13606496
:1012E000B4F8420082082046FFF754FB0020B0BD4E
:1012F00002F07CFEA0650120B0BD2046BDE8B040F4
:10130000FFF7F2B82046BDE8B040FFF713B902F08E
:1013100069FEEFE7600001007047406D704770475D
:10132000C8B170B50446406D20B900202065204644
:1013300000F02AF894E807006369084E0568354014
:10134000294311431943016000200121A065E06594
:101350006164616570BD0120704700BF99FFFAFFAD
:1013600010B5044600683549884218BF10BD34489E
:10137000016821F400310160A06C00F0E3F8E06C3A
:10138000BDE8104000F0DEB82DE9FC4104460068DD
:101390002A49884201D0BDE8FC8129492A4D002212
:1013A0004FF4006C4FF4007E802710262723086836
:1013B000A84640F40030086022480262C0E90053A9
:1013C000C0E90262C0E9047EC0E906C2096801F40E
:1013D00000310191019900F055F908B1FFF780FC47
:1013E000184D1021284600F09CF808B1FFF778FC52
:1013F000164800214FF40062EC62A5644FF40073BC
:101400008025282608F114070162C0E90076C0E9AA
:101410000211C0E90453C0E9062100F033F908B114
:10142000FFF75EFC094D1021284600F07AF808B15C
:10143000FFF756FCEC62E564BDE8FC81001800583B
:1014400050000058EC19002008000240501A0020FB
:10145000704740B3B0B5816A022926D1016800F116
:1014600044041CCC0D6803F01C0325F00E050D6030
:10147000256825F4807525600C6824F001040C6053
:10148000012101FA03F35360D0E914235360826D04
:1014900032B1136823F480731360D0E917235360CB
:1014A0008162002104E0012106E0042101640121A0
:1014B00000224262BDE8B04008467047B0B5816A7C
:1014C000022929D10168D0E91132C46C0D6825F0D8
:1014D0000E050D600D6825F001050D60216821F4F1
:1014E0008071216002F01C01012202FA01F15960B1
:1014F000D0E914134B60816D31B10B6823F4807314
:101500000B60D0E917134B60002141628262C26B0D
:101510002AB19047002102E004210164012108461C
:10152000B0BD60B10068CB06026805D5C90254BFE2
:1015300022F4801242F480120260002070470120E1
:1015400070470000F8B54FF0010C002844D0036844
:10155000244A7A4F0446196802F5806521F001019A
:1015600019601F490E1DB3423CBF0025C4F202059D
:1015700038BF07F580671F441420B7FBF0F08700E1
:10158000C4E911570025B3421D6038BF111D1C224C
:1015900002EA80000CFA00F008602046FFF722FB08
:1015A000606804F14C030ECB013803280D605360D2
:1015B00007D82046FFF73CFB04F1580207CA056034
:1015C0004A602564C4E916552566C4E90C55C4E98A
:1015D0000E556562A56200E001252846F8BD00BFF2
:1015E0000404024000000240F0B5D0E91123016874
:1015F000042403F01C0316680D689C40344201D09B
:101600006F0719D402249C40344201D0AF071DD487
:1016100026FA03F4240731D52C072FD50C6824F0C3
:101620000E040C60012101FA03F3536000220164EF
:1016300042628162816B1DE00B689B0603D40B68DC
:1016400023F004030B605460416B13E00A689206B8
:1016500005D40A6822F00A020A600122826200228E
:101660004262074A02F17C03994288BF02F5806218
:101670001460016B11B1BDE8F0400847F0BD00BF38
:101680000400024000284AD0F8B5044602202A4946
:10169000A06204F10806206801F1080268CE9042B9
:1016A000264A38BFA1F5806138BF02F58062142751
:1016B0000244B2FBF7F29200C4E9111247F6F0724D
:1016C00001689143016045EA0301626931431143B6
:1016D000A2691143E2691143226A1143026811436E
:1016E00001602046FFF77EFAA06804F14C03B0F5D4
:1016F000804F06BF00206060606800F07F050ECB61
:10170000013803280D6053600BD82046FFF790FA8C
:1017100004F15802002307CA03604A6005E0012073
:1017200070470020C4E916002066002001212064D3
:101730006062A162F8BD00BF00040240F8FBFDBF7B
:10174000B0B50446406A012804BF0220B0BD0120A4
:101750006062A06A012812D10220A06200202064E9
:101760002068056825F0010505602046FFF774FA3A
:101770002068626B016842B141F00E010BE000206D
:101780006062802020640120B0BD21F0040101606E
:10179000016841F00A010160E16C0A68D20303D5D7
:1017A0000A6842F480720A60A16D19B10A6842F4B5
:1017B00080720A60016841F0010101600020B0BD43
:1017C00081B00090009801B005F074B92DE9F84F90
:1017D000DFF81CA10546DAF80000012804BF02204A
:1017E000BDE8F88F002401208946CAE9000402F010
:1017F00055F9C8BB28683F4B1D4A04289B4607D1B2
:101800001968901C0843186002F048F95B4627E00D
:101810004FF0FF301749C9F8000068688846C400D7
:101820000646A968084486420FD21868174600EA9F
:10183000080020431043186002F030F938B9686896
:10184000083401363A465B46EBE7002002E05B468F
:10185000C9F80060196840F2FA3200249143196017
:1018600053F8141C53F8141CCAF80040BDE8F88F54
:101870000200010005FCFEFF1E48016841F0004126
:1018800001600068C043C00F704700BF2DE9F843F6
:10189000174F04463868012804BF0220BDE8F883CA
:1018A0004FF000090120984616460D46C7E9000989
:1018B00002F0F0F8B8B90F49012C0AD1086840F0DD
:1018C000010008602E60BFF36F8FC5F804800D46DD
:1018D00004E028460D463146FFF704FA02F0DAF834
:1018E0002968A1432960C7F80090BDE8F88300BFCC
:1018F000201C0020144000580648C168B1F1FF3F89
:10190000C4BF002070470449016004490160C068F9
:10191000C00F70470840005823016745AB89EFCDE1
:101920002DE9FC4F914A4FF0000890424FF007021A
:1019300008BF0222002400230092019131FA03F62D
:1019400008BFBDE8FC8F012202FA03F616EA010E79
:1019500057D0884A4FEA930CB0F1904F52F82C9030
:1019600007D0854ADDF800A0904208BF4FF0010A79
:1019700001E04FF0000A08F00C0B0721424601FA83
:101980000BF80AFA0BF509EA0807AF421BD17849B0
:10199000D1F8805025EA0E05C1F88050D1F8845066
:1019A00025EA0E05C1F884500D6825EA0E050D6084
:1019B0004D6825EA0E054D606E4951F82C5025EA18
:1019C000080541F82C5003210768904601FA04F5F8
:1019D0000F212F43076002F01C0701FA07F76FF091
:1019E000030101EA53020244116AB943116281689A
:1019F000A94381604168B1434160C168A943C160A6
:101A0000019908F104080234013397E72DE9F84FF2
:101A1000564A4FF000084FF0010B4FF0000E904275
:101A20004FF0070208BF022200920027514A924657
:101A30000A6832FA07F308BFBDE8F88F0BFA07F31C
:101A400012EA030900F08B804E68122E4DD80BFA73
:101A500006F515F0061F48D00322846802FA0EF539
:101A6000CA68AC436FEA050C02FA0EF222438260A8
:101A700032094468BA4024EA03031A437B004260F7
:101A8000C2688C6802EA0C029C402243C26046F0A5
:101A90001002122A11D16FF0030508F01C020F2466
:101AA00005EA5705944005442E6A26EA04040E69A7
:101AB00006FA02F222432A624E68026806F0030424
:101AC00004FA03F302EA0C021A430260F20046D55C
:101AD000BB0852465AF82360B0F1904F0CD0264A0A
:101AE000009D904208BF012507E0032202FA0EF391
:101AF0006FEA030C7346C3E7002508F00C020724C5
:101B0000944005FA02F226EA0404194E2243544690
:101B10004AF82320D6F880204C6842EA0903E503FE
:101B200058BF22EA0903C6F88030A503D6F88420FE
:101B300042EA090358BF22EA0903C6F88430E502E5
:101B4000326842EA090358BF22EA09033360A4025B
:101B5000726842EA090358BF22EA0903736008F178
:101B600004080EF1020E013762E700BF00080048CA
:101B70000008005808000140000400481823002A0B
:101B800008BF2823C150704704F0C2BF034804496E
:101B900040680A6810440860704700BF04000020D5
:101BA000581D002080B5032000F058F800F06CFAB2
:101BB0003F4908600F2000F007F808B1012080BD00
:101BC00000F004F8002080BD00207047704700003E
:101BD00000280CD400F01F010122400902FA01F193
:101BE000034A42F82010BFF34F8FBFF36F8F704747
:101BF00080E100E0002808D400F01F010122400924
:101C000002FA01F1014A42F82010704700E100E0B9
:101C1000F0B5184B4FF0FF361C68C4F30224E51EE4
:101C200084F0070438BF002506FA05F7BA43042CF0
:101C300028BF042406FA04F4A14300F00F04A940CD
:101C4000043C11432344044A09010C33B0F1FF3F23
:101C5000C8BF83181970F0BD00E400E005494FF6D5
:101C6000FF030A681A4060F30A2203481043086021
:101C7000704700BF0CED00E00000FA05204832225A
:101C8000016821F480410160094909685143094A0A
:101C9000B1FBF2F14A1E43698A4203D213F4007188
:101CA0001146F7D140690321800501EAE0707047D1
:101CB0001800002040420F00114802F09FB900BFF9
:101CC0000F49022301280A6863F302020A601D49D2
:101CD0000A6842F004020A600FBF30BF40BF20BF55
:101CE00020BF01F0DFBE00BF0548006800F4C060FF
:101CF000704700BF0248016841F48071016070477D
:101D00000004005810B50C460D49096801F4007133
:101D100018B139B9FFF7D0FF04E019B1FFF7AEFFF2
:101D200000B110BD0748012C016821F004010160D9
:101D300004BF30BF10BD40BF20BF20BF10BD00BFDB
:101D40001404005810ED00E0F8B504468078544EB5
:101D5000C00742D0FFF7CEFFFFF716FF0546D6F8C3
:101D6000F403C00506D4FFF70FFF401B0228F6D985
:101D7000032533E0606BD6F8841001F44071814292
:101D800024D0D6F88410D6F8842042F48032C6F8E5
:101D90008420D6F8842022F48032C6F8842021F4EE
:101DA000407289070146C6F884200FD5FFF7ECFE84
:101DB000054641F28837D6F88400800705D4FFF73E
:101DC000E3FE401BB842F6D9D2E7616BD6F8840037
:101DD00020F440700843C6F8840000252068C1073D
:101DE00002D0616802F0D2F8810702D5A16802F042
:101DF000CDF8810605D52169F26F22F440621143C6
:101E0000F167810502D5216A01F065FE410502D521
:101E1000616A01F060FE010502D5A16A01F05BFE76
:101E2000410603D5606901F033FC2068010603D543
:101E3000A06901F02DFC2068C10503D5E06901F01F
:101E400027FC2068C1060CD5E168F26F22F44072CD
:101E50000A43B1F5807FF26703D1316841F08071A8
:101E6000316001040AD5216BF26F22F040420A432F
:101E7000F26719B9316841F08071316040040CD5C6
:101E8000E06AF16F21F040510143B0F1005FF1676A
:101E900003D1306840F4803030602846F8BD00BF80
:101EA0000C0000582DE9F843002800F0B780734F6C
:101EB00005460C46386800F00700884211D23868A1
:101EC00020F00700204302F09EF80646386800F034
:101ED0000700A04205D0FFF757FE801B0228F5D966
:101EE0006EE02868B9467C4F810711D5A86839682B
:101EF00021F0F001084302F086F806463868C00376
:101F000005D4FFF741FE801B0228F7D958E0286866
:101F1000810615D56869D7F8001121F0F001084352
:101F2000C7F80001FFF730FE0646D7F8000180032E
:101F300005D4FFF729FE801B0228F6D940E0286867
:101F4000410616D5A869D7F8001121F00F0141EA22
:101F50001010C7F80001FFF717FE0646D7F800017A
:101F6000C00305D4FFF710FE801B0228F6D927E036
:101F70002868410711D5E868396821F4E061084311
:101F800002F041F806463868800305D4FFF7FCFDEF
:101F9000801B0228F7D913E02868010714D52869A7
:101FA000396821F4605141EAC00002F02CF806467D
:101FB0003868400307D4FFF7E7FD801B0228F7D9F4
:101FC0000320BDE8F8832868C0071CD1D9F80000B9
:101FD00000F00700A04224D9D9F8000020F0070043
:101FE0002043C9F80000FFF7CFFD05464846D9F861
:101FF000000000F00700A04213D0FFF7C5FD01F07C
:10200000C1FFF3D930E068684FF0B04198B10328C0
:102010002CD002282ED1096889030FD40120BDE8F5
:10202000F88300F031F81649086016480068BDE8EA
:10203000F843FFF7C9BD09688907EFD5396821F072
:102040000301084301F0DFFF064641F28838686863
:10205000396801F00C01B1EB800FB7D0FFF794FDA8
:10206000811B03204145F2D9BDE8F8830968890145
:10207000D4D5E3E709684905D0D5DFE7004000582B
:10208000180000200400002080B500F029F8124953
:102090003C22096802EA9101024A5158B0FBF1F072
:1020A00080BD00BF7080000880B5FFF7EDFF0A49D2
:1020B0000A4A0968C1F3022152F82110C84080BDC4
:1020C00080B5FFF7E1FF0449044A0968C1F3C22162
:1020D00052F82110C84080BD08000058B0800008A8
:1020E00010B5364951F8042C086812F00C0205D0DE
:1020F0000C2A15D100F00300012811D14FF0B04097
:102100000368006800F008001B0705D4B8B9D1F8CF
:102110008800C0F303201CE0B0B9D1F8880011E0BA
:102120002748042A1ED0082A1BD14FF0B04212685B
:10213000D2025CBF44F60000C0F2E81012E04FF09B
:10214000B0400068002004E04FF0B0400068C0F3E9
:1021500003101C4B002A53F82030184618BF0020EB
:1021600001E00020002351F8042C02F00C020C2A9C
:1021700022D1086800F003021148022A0CD0032A79
:1021800009D14FF0B0421268D2025CBF44F60000A1
:10219000C0F2E81000E018460A680B6809680124DC
:1021A000C2F3062204EB51715043C3F30212013211
:1021B000B0FBF2F0B0FBF1F010BD00BF0C00005816
:1021C0000024F4008C8100082DE9F047002800F07D
:1021D0005981DE4C8246606800F00C08A06800F06F
:1021E00003099AF80000800627D49AF80000C00777
:1021F00070D0B8F1080F63D0B8F10C0F08BFB9F177
:10220000030F5DD04FF0B041DAE901020B6823F40F
:1022100080131A43B0F5803F0A6009D0B0F5041F5F
:1022200040F096814FF0B040026842F40012026024
:10223000086840F48030086097E1B8F1000F1DD0C5
:10224000B8F10C0F08BFB9F1010F17D04FF0B0462D
:102250003068DAF82010002900F0348140F00100E5
:1022600001F0B5FC05463068800700F13A81FFF7C0
:102270008BFC01F087FEF6D9BDE8F0874FF0B04146
:102280000868800704D5DAF82000002800F0FA80FA
:10229000DAF828000968090759BFD4F8901009092D
:1022A0004FF0B041096801F0F001884240F2D4805B
:1022B00001F0ECFF002840F0E58001F0F8FBE4E0DD
:1022C0004FF0B0400068800304D5DAF8040000281D
:1022D00000F0D8809AF80000800730D5B8F1040FDC
:1022E0001BD0B8F10C0F08BFB9F1020F15D04FF099
:1022F000B0463068DAF81010002900F0468140F44A
:10230000807001F064FC0546306840050FD4FFF78B
:102310003BFC01F037FEF7D9AEE74FF0B040006864
:10232000400504D5DAF81000002800F0AB80DAF898
:102330001400216821F0FE4141EA006020609AF813
:10234000000000072CD49AF8000040074FD4DAF8B8
:102350002C0010B3B8F10C0F40F0C680012800F03B
:102360009180DAF83010A06800F003028A4240F051
:102370008980DAF8341000F070028A4240F08280DE
:10238000DAF8381000F4FE42B2EB012F7AD1DAF815
:10239000441000F06040884274D10020BDE8F0870E
:1023A000D4F89010DAF8180000287AD0DAF81C0077
:1023B00001F01002904200F08D8101F00302022A28
:1023C00060D0C90700F07F81D4F8900020F00100B0
:1023D00001F04BFE0546D4F89000800740F1718172
:1023E000FFF7D2FB411B03201129F4D944E7D4F8AD
:1023F000FC03C0050ED4FFF77DFCFFF7C5FB0546C7
:10240000D4F8FC03C00505D4FFF7BEFB01F0BAFD0C
:10241000F6D931E7DAF80C00002800F0C5808528ED
:1024200001D0052805D1D4F88C0040F00400C4F890
:102430008C00FFF7A9FB01F07AFC40F00100C4F822
:102440008C00D4F88C00800764D4FFF79DFB411BFF
:102450000320B142F5D90FE74FF0B0410A6842F0CE
:1024600008020A600A6822F0F00202430A60DAF801
:102470002410226822F47F4242EA0121216001F007
:1024800005FF10B10120BDE8F087FFF7FDFD9B4976
:1024900008609B480068FFF797FB00287FF4ECAECC
:1024A000A3E621F0010001F0E0FD0546D4F890001C
:1024B00080077FF548AFFFF767FB411B0320112919
:1024C000F4D9D9E620F0010001F081FB054630681F
:1024D00080077FF58AAEFFF757FB01F053FDF6D971
:1024E000CAE601F0E4FA80E64FF0B046022831680F
:1024F00021F08071316071D1FFF746FB05463068ED
:10250000800140F18180FFF73FFB411B03200A2936
:10251000F5D9B1E6DAF80C0040F00400852840F067
:102520009980FFF731FB01F002FC40F08000C4F815
:102530008C00D4F88C0000053FF509AFFFF724FBB1
:10254000411B0320B142F4D996E600BF04000058B5
:102550004FF0B0460028316821F480313160316895
:1025600021F40011316000F09E80FFF70DFB05465D
:102570004FF0B046306880033FF5ACAEFFF704FB88
:10258000411B03206429F5D976E620F4807001F020
:102590001EFB0546306840057FF5D1AEFFF7F4FA23
:1025A00001F0F0FCF6D967E6FFF7EEFA0646D4F83C
:1025B0008C0041F2883920F08000C4F88C00D4F8F7
:1025C0008C0027460405FFF7DFFA0546002C55D599
:1025D000A91B03203C464945F1D94DE6A06849496D
:1025E00020F00300A060A0680840A060FFF7CCFACC
:1025F0000446306880017FF5D0AEFFF7C5FA011BB5
:1026000003200A29F5D937E6A0683F490AF13007C7
:102610000840EECF0843104340EA032028434FF020
:10262000B04530433843A060286840F0807028608F
:10263000A06840F08050A060FFF7A6FA0446286822
:1026400080013FF5AAAEFFF79FFA011B03200A297C
:10265000F5D911E6FFF798FA01F069FB20F0800048
:10266000C4F88C00D4F88C0000057FF570AEFFF73D
:102670008BFA411B0320B142F4D9FDE5D7F88C0059
:102680003C4641F2883620F00100C7F88C00D4F8AF
:102690008C0080077FF55BAEFFF776FA411B0320C5
:1026A000B142F4D9E8E5FFF76FFA054630688003D8
:1026B0007FF510AEFFF768FA411B03206429F5D9B6
:1026C000DAE5DAF81C00D4F8901021F01001084384
:1026D000C4F89000D4F8900040F0010001F0C5FC6F
:1026E0000546D4F8900080073FF52DAEFFF74CFA71
:1026F000401B1128F5D90320BDE8F0871800002001
:1027000004000020FFFFFEEE8C80C1117047F8B579
:1027100004468068012801D102253FE00120A06025
:10272000E068012808D102200E46E0602068406879
:10273000400605D400250DE00420012520612BE092
:1027400008202061204601F0F3FD0546012801D153
:10275000012523E0FFF718FA074620684168C907FA
:102760000BD1FFF711FAC01B0328F6D30125002077
:10277000E560A0600220206110E08168616142682C
:10278000520601D4316005E008212161416821F041
:10279000010141600120E0600020A0602846F8BDF2
:1027A000B0B5002846D00446C06820B90020A0601B
:1027B000204600F049F80220E060D4E900010268F8
:1027C00022F004020260026822F02002114341F06C
:1027D000804101601B4901614AF67421016101F0E9
:1027E000BDF9054620680168490009D5FFF7CCF915
:1027F000401B0328F6D301200221E0602161B0BD17
:10280000016841F0040101604068400610D4FFF700
:10281000BBF905462068406840070DD5FFF7B4F9BD
:10282000401B0328F6D30420E0600220206101E071
:102830000420E0600120B0BD0120E06000202061A4
:10284000B0BD00BFBC0A591770477047034850F825
:1028500021007047014840F82120704700B1004036
:10286000C26A0221012A0BD00163B049734601F00C
:10287000FCF99E4642F02002734601F03CF99E4668
:102880000846704780B504F0EBF80130BDE88040A1
:1028900004F0F2B810B504461F480168490604D593
:1028A000402181602046FFF7EDFF0120206310BD2D
:1028B000C26A0221012A13D001639C49734601F0C8
:1028C000D4F99E4642F080020A609A4A136843F4A3
:1028D00080231360FF22CA6000210122C1620263CB
:1028E0000846704705F032B870B50B4D04462868AD
:1028F000616B01EA0006F00704D00120A8602046C1
:10290000FFF7F0FFB00704D50220A8602046FFF7CC
:102910009CFF0120206370BD5428004010B5C36A9D
:102920000222012B28D00263804ACA23D36053239A
:10293000D3603423B1F5807F08BF2C239C58B1F5B8
:10294000807F24F000449C506FF4085308BF6FF45C
:102950008853146823401360FF23D36000226FF074
:102960000203C262B1F5807F08BF6FF00103416BC3
:102970001940416301210163104610BD70B578B361
:102980000446006B20B90020E062204600F03CF8CD
:102990000220754D2063CA20A8615320A8612046FB
:1029A00001F020FDC8B9E8681649261D0840E86016
:1029B0004ECEA06931430843E9680843E86043EA22
:1029C00002406860D4E909012A6822F4F8521043F1
:1029D0000843286001F046F920B1FF21A96170BDCC
:1029E000012070BD6069D4E90712EB6823F06043F1
:1029F0001A4311430843E860FF20A86101202063C7
:102A0000002070BDBFFF8FFB10B590B0044601A839
:102A100030210430FDF709FC20681749884229D18C
:102A20004FF480700E904FF48030019001A8FFF7B2
:102A30008BF908B1FEF754F910480022816B41F47C
:102A400000418163016841F48061016000210068F8
:102A500000F480600F900F980220FFF7D9F8022051
:102A6000FFF7C8F82A2000210022FFF7D1F82A201A
:102A7000FFF7C0F810B010BD002800405800005803
:102A80002DE9F04701F031F84ED020630120274FA7
:102A900001F0FDFA01D100201CE0386800F0400090
:102AA0001AB188B90021E97010E008B90020E87077
:102AB0002878DFF87CA0D04780466878D04701F0BE
:102AC000DAF801F0A3FA03E0E878810501F082F872
:102AD00001F011FB01F061FA0ED101F0F5FA19BF16
:102AE000B862A869D5E906010843F862686801215F
:102AF000B8654FF488500DE001F0BBFA19BF386398
:102B0000A869D5E906010843786368680221F86579
:102B10004FF408503A68104338600648026842F49F
:102B20000032026001F009F9BDE8F0871828004082
:102B3000C143000880080058B0B50B4D286860F00C
:102B4000A0002860FFF720F804462868800644BFEC
:102B50000020B0BDFFF718F8001BB0F57A7F84BFE6
:102B60000320B0BDF1E700BF0C280040014800F091
:102B70008CBF00BF10E000E0012904D041B9CC486F
:102B8000816880200847CA4881684FF480700847F0
:102B9000704700BFC6488168402008472DE9F041D2
:102BA00001F09AFA02D1A068012802D10220BDE802
:102BB000F08101F01BF8ED490868884620F40040D8
:102BC0000860F9B201F05DFA20460021002702F00A
:102BD00013FCAF4204D201F062FA01370136F8E784
:102BE00001F0E4F900F08FFF18BF0120BDE8F0818B
:102BF0002DE9F04101F070FA02D1A068012802D15C
:102C00000220BDE8F081012520461E461746884671
:102C1000A56002F01DFC48F010005FFA88F19428CE
:102C200018BF00252571D14D286820F40040286088
:102C300001F027FA2EB117F8011B01F022FA013E2C
:102C4000F8E72868B8F1840F40F40040286002D00B
:102C5000204602F019FC00F056FF18BF0120BDE825
:102C6000F08100BF92488168202008479048816821
:102C7000102008477CB5044600200DF10602122101
:102C80000223ADF806002046FFF788FF9DF8076095
:102C90009DF80650F00702D0204600F005F9B00775
:102CA00002D5204600F0F2F8700702D5204600F069
:102CB00091F8300702D5204600F0F2F8F00602D570
:102CC0002046FFF7D3FFB00602D52046FFF7CAFF24
:102CD000700602D52046FFF75DFF300604D505F0EB
:102CE00001012046FFF748FFA80702D5204600F063
:102CF000D1F80DF10602204602210223FFF778FFEA
:102D00007CBD0000BCB510B30446C06820B90020EB
:102D1000A060204600F046F802201E4A6423E060CE
:102D20001D48815821F4004181501C490968C1EBBC
:102D3000C101C1F34C4159430191019949B1019B32
:102D4000013B019383585B04F7D4002503E0012580
:102D50001DE001252561D0F8882042F40042C0F82A
:102D600088200F4A136843F480531360026842F4CA
:102D7000006202604FF40062026131B1206802F02B
:102D8000FDFA00202061012020710120E06028462A
:102D9000BCBD00BF8CFCFFFF0804005818000020D9
:102DA00090080058E0B50A480022016841F001018E
:102DB00001600021006800F00100019001983220BC
:102DC000FEF726FF3220BDE88C40FEF713BF00BFA0
:102DD0006400005836488168042008472DE9F8430C
:102DE00001F07AF902D1A068012802D10220BDE8E1
:102DF000F88300F0FBFE5D49DFF8748101F03EF8D6
:102E00001E21C04720463946C047204600210027E2
:102E1000C047AF4204D201F042F901370136F8E76A
:102E200000F095FF00F06FFE18BF0120BDE8F883A9
:102E30002DE9F84301F050F902D1A068012802D130
:102E40000220BDE8F88300F0D1FE4849DFF8208178
:102E500001F014F81D21C047390A2046C047F9B2D5
:102E60002046C047204600210027C047AF4204D279
:102E700001F015F901370136F8E700F068FF00F0BE
:102E800042FE18BF0120BDE8F88300BF08488168F2
:102E900002200847064881684FF40070084700BFC9
:102EA00003488168082008470148816801200847D5
:102EB000A80000202DE9F04101F00EF902D1A06830
:102EC000012802D10220BDE8F08100F08FFE2749E1
:102ED0000868884620F40040086020460E2102F071
:102EE0008BFA2046394602F087FA2DB116F8011BFD
:102EF00001F0C7F8013DF8E701F058F800F003FED3
:102F000018BF0120BDE8F0812DE9F84301F0E4F895
:102F10001CBF0220BDE8F8830F46A16802200129EA
:102F200021D0E06001201D461646A060204602F038
:102F30008FFA0E49DFF8388000F0A0FF0D21C0475E
:102F4000390A2046C047F9B22046C0472DB116F8CD
:102F5000011B01F096F8013DF8E700F0F8FE00F0E3
:102F6000D2FD18BF0120BDE8F88300BF90040058CF
:102F7000F9530008014800F0D5BE00BF10E000E0A2
:102F800010B500F092FF04BF022010BD2420C4F849
:102F9000840020680168026822F0010241F00051BB
:102FA00002600122C4F880204FF000526266016086
:102FB000204603F06DFF00202021C4F88000C4F8F3
:102FC000841010BD0146D0F88000012804BF022003
:102FD00070470020C1F8800009680A6842F00202C8
:102FE0000A60704770477047B0B500F05EFF04BFDD
:102FF0000220B0BD00F099FD22F0606200F0E5FF14
:1030000000F005BEB0B500F050FF04BF0220B0BD17
:1030100000F08BFD22F0604200F0D7FF00F0F7BD1A
:10302000BCB500F042FF04BF0220BCBD2420C4F8A0
:1030300084002068036823F0010303600123C4F8BF
:103040008030836823F440130B43836059B943688D
:1030500091B223F0100319434160C2F30741426863
:1030600061F31F624260016841F001010160FEF7F7
:103070008BFD03466FF07E404FF480010022002557
:103080000090204604F07AFA08B1032003E02020E3
:10309000C4F884000020C4F88050BCBD704770475D
:1030A0007047000070B50168044640F60F05CA6914
:1030B00008688B682A4272D08B4D00EA05068B4D5A
:1030C0001D40761975D0D60709D0C60507D501264B
:1030D0000E62D4F88C6046F00106C4F88C60960746
:1030E00009D5DE0707D002260E62D4F88C6046F0C0
:1030F0000406C4F88C60560709D5DE0707D00426FD
:103100000E62D4F88C6046F00206C4F88C60160794
:103110000BD500F02006354307D008250D62D4F802
:103120008C5045F00805C4F88C5015050AD54501AA
:1031300008D54FF400650D62D4F88C5045F0200599
:10314000C4F88C50D4F88C50002D70D092060AD55B
:1031500000F0200003F08052801804D0226F12B1DA
:10316000204690472168D4F88C00896800F0280038
:1031700001F04001401854D0204603F06FFF206852
:103180008168490648D500F07BFD45D05849C163A8
:10319000FEF794F900284AD0E06FC16B1FE0950656
:1031A00007D500F0200503F08056AD1901D0216F3E
:1031B00013E0E56E012D03D1D50601D5C50637D440
:1031C000D50201D55D021FD415060BD500F0800590
:1031D00003F400035B1905D0616F41B32046BDE8DD
:1031E00070400847530601D5430644D4110201D567
:1031F00041004ED4D1011AD5B0F1FF3F17DC204673
:10320000BDE87040FFF7EFBE4FF480100862204623
:10321000BDE87040FFF743BF2046BDE87040FFF7B0
:103220003FBF2046FFF73CFF0020C4F88C0070BD74
:10323000102008628868400630D4B4F85E00B4F804
:103240005C20B4F85E30002BF1D0101A0204EED0EE
:103250000A68284B22F490720A608A681A408A60D1
:103260002022C4F888200022E26622670A6822F041
:1032700010020A6032E0086820F040000860002078
:1032800060672020C4F884002046BDE8704000F04C
:10329000A3B92046BDE87040FFF700BFE06F0368A8
:1032A0005D68AEB2002EC2D0B4F85C209642BED2A9
:1032B000A4F85E501B689B060DD400F0F4FEC4F821
:1032C00088200022E2660A6822F010020A60FEF7F7
:1032D000C0F8B4F85C20B4F85E00101A81B2204641
:1032E000BDE87040FFF77EBE200100040100001021
:1032F000C96F0008FEFFFFEF10B548B10446D0F8D3
:10330000840008B900F05BFE00F004FC012801D144
:10331000012010BDA06A08B100F01AFE00F0FBFD0C
:1033200021F02A01816000F0DBFEBDE8104003F0CF
:1033300025BE000010B5044600683E49884218BF0B
:1033400010BD0948016821F0010101604FF0904073
:103350000C21FEF7E5FAA06FFEF7F4F82620BDE891
:103360001040FEF735BC00BF5C00005870B594B04B
:1033700004460EA81421FCF758FF68463421043097
:10338000FCF753FF20682B49884251D14FF440602D
:103390000490202000906846FEF7D6FC08B1FDF7A7
:1033A0009FFCBA480025016941F0010101610169F2
:1033B00001F0010113911399016841F001010160CD
:1033C000006800F00100139008201095129003206F
:1033D000119002200F900C200E9013980EA94FF020
:1033E0009040FEF713FB1448144E80211022162340
:1033F000C0E90063C0E90225C0E90415C0E906552B
:103400000562FEF73FF908B1FDF76AFC0A4D10218D
:103410002846FEF786F808B1FDF762FC2620022157
:103420000022EC62A567FEF7F3FB2620FEF7E2FB25
:1034300014B070BD00800040B41A00205800024053
:1034400010B5D0F88830202B05D131B12AB1D0F891
:103450008030012B03D1022408E0012406E000247F
:103460000123C466C0F8803004F024F8204610BD63
:1034700010B504460848436833B1D4F88C0018B935
:103480000548012100229847034920460122BDE852
:103490001040FFF7D5BF00BF640000202DE9F843BE
:1034A0000446D0F88400202807D10E4641B11746C3
:1034B00032B1D4F88000012805D10220BDE8F8839C
:1034C0000120BDE8F8834FF0000901201D46C4F833
:1034D0008C90C4F880002120C4F88400FEF754FBCF
:1034E000A4F856708046A4F85470A068B0F5805FC8
:1034F00001D1206908B1002701E037460026C4F851
:103500008090B4F85600B8B12046802100F09FFCAE
:10351000B8B926B116F8010B2168886206E037F8C1
:10352000021B206800266FF35F218162B4F8560009
:103530000138A4F85600E4E72046402100F087FC5B
:1035400010B10320BDE8F8832020C4F884000020D7
:10355000BDE8F883F8B50546D0F88400202806D1E8
:1035600031B3134622B3D5F88000012801D10224DB
:103570001FE000240120A5F85630C5F88C40C5F89E
:1035800080002120A5F854302965C5F88400A86F73
:1035900088B10E4A0E4E0F4FC0E90E242A68C0E9CA
:1035A0000C762832FEF7CCF828B1102000F00DFC84
:1035B00001242046F8BD286840210162C5F88040FA
:1035C000816841F080018160F3E700BFD96F000896
:1035D000577000082F700008014801680020084754
:1035E000D81800207047FEE7E7480178012909D183
:1035F000E1490022012302700A70E4490A80E1498E
:10360000C1E900324178012907D0C178012906D0EB
:103610004079012818BF704701E000214170FDF793
:103620009DFD00BF81B00B490A6802430A6009682A
:1036300008400090009801B0704700BF81B0054974
:103640000A6802430A60096808400090009801B0C7
:10365000704700BF4800005881B00C490A68024317
:103660000A60096808400090009801B0704700BFE8
:1036700081B00648016841F001010160006800F076
:1036800001000090009801B0704700BF4C00005846
:10369000064A6FF47F2161EA101100F47F4013683D
:1036A000194041EA00101060704700BF88000058C0
:1036B0006648FFF7F7BC00BF80B50420FFF7B2FFF4
:1036C0000120FFF7AFFF0F2002210022FEF7A0FA32
:1036D0000F20BDE88040FEF78DBA0000B0B53C4930
:1036E0000A6842F400020A603A49FCF7B0FD4FF064
:1036F0007A510446FCF7ABFD3749FCF718FEC0BB16
:1037000020464FF07851FCF7A2FD3349FCF70FFE3D
:1037100098BB20464FF07651FCF799FD2E49FCF7F7
:1037200006FE70BB20464FF07451FCF790FD2A490D
:10373000FCF7FDFD48BB20464FF07251FCF787FDBA
:103740002549FCF7F4FD20BB20464FF07051FCF7F3
:103750007EFD2149FCF7EBFDF8B920464FF06E5194
:10376000FCF775FD1C49FCF7F0FDD0B100210020ED
:103770001AE000204FF0814116E001204FF0824115
:1037800012E002204FF083410EE003204FF084410D
:103790000AE004204FF0854106E005204FF0864105
:1037A00002E006204FF087410F4D45F255522A6046
:1037B00068602046FCF77DFDFCF7DAFD80B2A8606A
:1037C0004AF6AA2028604CF6CC402860B0BD00BF65
:1037D000940000580000FA4600007A4502484AF674
:1037E000AA210160704700BF0030004010B51748A3
:1037F0004FF00051164C4FF416530C224166002135
:10380000C0E90043C0E908118162C0E90211C0E9C2
:1038100004128161FFF770FD08B1FDF761FA0B48F2
:103820000021FFF7EFFB08B1FDF75AFA0748002126
:10383000FFF7DAFB08B1FDF753FA0448FFF7A0FBE6
:1038400018B1BDE81040FDF74BBA10BD181B0020A1
:103850000080004080B58CB001A82821FCF7E5FC71
:10386000174800224FF480714FF08043C0E90821CF
:103870001F21C0E90422C0E90623816011490160CB
:10388000FFF77CF808B1FDF72BFA0D48FFF710F8A9
:1038900008B1FDF725FA4FF4807001220B904FF02C
:1038A000005007900020069002900890044801A95B
:1038B000FFF7E6F808B1FDF713FA0CB080BD00BFC2
:1038C000C01B00200028004080B505480821016089
:1038D000FFF718FA18B1BDE88040FDF701BA80BDC6
:1038E000FC1B002080B503F017F8BDE8804002F013
:1038F000EBBE4FF0FF3003F06DBFFEE710B5FFF7F2
:103900006DFF53480078012812D0E8B9514C0020CF
:1039100020606068022818D001281FD0A0B917487D
:103920000178174802F066FD01280DD101201DE045
:1039300012480178124802F0C9FD28B14548022119
:10394000016011480121017110BD0C4801780C483B
:1039500002F03AFD0128F7D1032007E0074801787B
:10396000074802F017FD0128EED1022060600748E9
:103970000021018010BD00BFAC0300201400002016
:10398000480300204C180020FC00002048080020BC
:103990001CB5FFF723FF2E480078012810D068BB24
:1039A0002C4C6068032829D8DFE800F0022932385F
:1039B0002A48C168446B2A4888474FF47A700DE062
:1039C000244C206870B102280FD0012816D123485A
:1039D000C168446B224888474FF4FA602146BDE82D
:1039E0001C4008474FF47A7001E04FF4FA60FDF78D
:1039F000E7FE194802F0F2FD012020601CBD20689E
:103A000040B96420FDF7DCFE134802F00DFDF3E73A
:103A10002068B0B1BDE81C4002F048BF114812490F
:103A20000A24007801EB40114B784A68D1E906017D
:103A3000009402F047FA4FF47A70BDE81C40FDF79D
:103A4000BFBE6420FDF7BCFE034802F017FDD3E7BC
:103A5000AC0300204C180020E9680008CC81000865
:103A600000A1BC33C80000204C080020704782022F
:103A7000810D002310464FF47A72FCF779BB50F8A1
:103A800024204FF09040FEF779B8016841F0020120
:103A9000016070474FF47A70FDF73CB94FF47A70CB
:103AA000FDF738B9086820F00400086070474FF04F
:103AB000B040016841F008010160DAE909120368C9
:103AC00023F0F0031A430260206820F47F4040EAAC
:103AD0000120206070474FF6FF72F36F62EA010227
:103AE0001A4042EA0141F16770470D46C16A044637
:103AF0000220012970470A60FF22CA6000210122CA
:103B0000C1620263704700200121A0602069E1606A
:103B1000002870472420C4F884002068016821F040
:103B200001010160204603F0D5BB2420C4F88400C5
:103B300020680568026822F0010202600122C4F8D0
:103B4000802082687047216920680A68C2624A68DA
:103B500082628A684262C96801627047016821F026
:103B600080410160FEF710B84FF6FF704FF6FF710D
:103B70000022002301F03ABE0123FFF739B84DF8C7
:103B800008ED03F0FBF86FF002005DF808EB7047FA
:103B900020884AF65521884270478DF8052002F0AA
:103BA00055BA0498FCF7E4BBADF81230CDF80E30EE
:103BB000CDF80A300190704720464FF48071FEF72F
:103BC000ADBE4FF0904002210022FDF7D7BF30601C
:103BD000FDF7DABF6B782A78AE7895F824001B02DF
:103BE00043EA0242324442EA0106704701201D4680
:103BF00016460F46A060204601F02ABC016821F05D
:103C0000100101602046B4F85C10FFF7EBB92068A2
:103C1000202105600020C4F88000C4F88410B0BDE5
:103C20000022002301F0E2BD8DF807000323CA60E3
:103C3000010A000C7047002000210022234603F0F7
:103C4000DDBC9DF81B1022460A2370474DF808ED95
:103C50008DF81A100D21FDF7A4F88DF81B005DF802
:103C600008EB7047204600F0E5BBCA22CA60532229
:103C7000CA600A687047000240EA0846A8785047C0
:103C8000816821F040018160E06F00287047016881
:103C900021F001010160A06D40F01000A06500203E
:103CA000206501206065704721F4D0710160816852
:103CB00021F0010181602020C4F8840070478360F6
:103CC000E38F0133E387704701220262D4F88C202E
:103CD00042F00102C4F88C207047016821F0010114
:103CE0000160A06D40F01000A0650020206501205B
:103CF000606510BD04210162D4F88C0040F0020020
:103D0000C4F88C00704702220262D4F88C2042F082
:103D10000402C4F88C2070474FF09040012100222B
:103D2000FDF72CBF016821F00201016070470546D4
:103D3000D4F88C0041F288367047FF20F8600020EC
:103D4000626BE06211436163012121637047D9F81E
:103D5000000040F40040C9F80000204601F094BB88
:103D600020684A46016821F480710160816801EA97
:103D7000090181602021C4F88810C4F870A0E16EA8
:103D8000012970474DF808ED026822F4C042026034
:103D90002046FCF735FE216920680A68C2624A683D
:103DA00082628A684262C9680162016841F0010169
:103DB00001605DF808EB7047002001F0F5BE304669
:103DC000FDF7ABBA102104F005B9C5F88C0000204E
:103DD000C5F880002020C5F884007047216701687D
:103DE00041F020010160BDE8F88F02206065256D7B
:103DF000012D704700222B460090204603F0BEBBE9
:103E000001688268B4F86050D4F88830222B70477B
:103E1000B4F85E00002870474DF808EDA168204610
:103E2000FCF7EEFD2068016841F018015DF808EB31
:103E300070472020C4F88400C4F888000020704730
:103E4000026822F4700242EA0152026070470022C6
:103E50004346009503F092BBA4F84220026822F08A
:103E6000180202600122C4E90D137047096801F0CD
:103E70000F0152F82110B0FBF1F070470868894635
:103E800020F40040086020467047016821F49071DA
:103E90000160816821F0010181602021C4F888104F
:103EA00000212167E16E012970470446D0F88000A7
:103EB000012870474DF808ED026822F4C042026004
:103EC0002046FCF79DFD216A20680A68C2624A68A4
:103ED00082628A684262C9680162016841F0010138
:103EE00001605DF808EB7047214600F12005284687
:103EF00003F072BDB0FA80F040097047816941F06B
:103F00000801816110BDB4F84200216E08442066AA
:103F10002046FCF7C3BC2068416821F49041416011
:103F200081687047A4F84000656A2068002D7047DA
:103F30000870B4F85E000138A4F85E0070472046AF
:103F4000FFF796BA02206064B4F842000028704778
:103F5000204602F0BFBF0168022241F080010160EB
:103F6000016862F3C4017047016841F0800101609B
:103F70002046FCF711BCA06D40F00400A06520466F
:103F8000FDF7CAB9411B032002297047F26F22EAEC
:103F9000114289B21143F1677047CA21F960532178
:103FA000F9603968AA6AB2F5807F7047D8F80000D6
:103FB00040F40040C8F80000204601F065BA002037
:103FC000C4F880002046FFF7D1B911438160204634
:103FD00002F05EBF40F2FF1001F09CBEA1682046D7
:103FE000FCF70EBDA06D40F020007047A06D40F0C2
:103FF000080070470446406D01287047016841F48D
:104000008041016070473860FDF7BEBD3118EA7825
:1040100095F8240041EA8256504764232268C2EB97
:10402000C202C2F34C425A4370478DF8060049F26F
:10403000C140ADF8040070472068016841F00101FB
:104040000160522170472068016821F00101016080
:10405000204670474DF808EDA1682046FCF7D0FCDB
:10406000606900285DF808EB7047C4F89000FDF720
:104070008BBD21F40851396002217964B9F5807F44
:104080007047204601F0B8B9304601F0EDBBE06260
:1040900057F80C0C00F44079B9F5807F7047204642
:1040A000314601F07DB90A6822F480720A608A689C
:1040B00022F001028A608A6822F040028A6020228F
:1040C0007047012000F052BC21F488513960012171
:1040D0007964B9F5807F70470446C068012870474D
:1040E000016841F00101016020467047002194F809
:1040F000940001F079BD2A6A6969324342EA00609E
:1041000008437047F8B5074623481C4615460E4637
:10411000C06A804709483946324606800848FCF79D
:104120006BF80848002144700570082003F0C6FBB6
:1041300020200021BDE8F84003F0C0BB140000209F
:10414000480300202000002080B51348C06A804743
:1041500020200021BDE8804003F0B0BB80B50E48B0
:10416000C06A804720200021BDE8804003F0A6BB44
:1041700080B50948C06A804720200021BDE8804002
:1041800003F09CBB80B50448C06A80472020002112
:10419000BDE8804003F092BBCC810008704780B539
:1041A000FEF7E8FE00200121BDE88040FDF7AABD32
:1041B00080B5FEF7DFFE0448012101600120BDE863
:1041C0008040FDF77DBD00BF880400587047FEF7B2
:1041D000CDBC80B5FEF7CAFCBDE8804003F0EEBE62
:1041E0007047000003280BD810B5044605A0012134
:1041F000FFF745FC07A00221FFF741FCBDE8104096
:1042000000207047000000000100000000000000D6
:10421000000000000000000000000000010000009D
:1042200001000000022070470A20704770B586B078
:1042300000244FF09040012101250594FDF770FB0B
:104240004FF0904002210226FDF76AFBFFF710FABB
:10425000FFF70EFA0320CDE90155CDE9034001AC8B
:104260004FF090402146FDF7D1FB4FF090402146A2
:104270000196FDF7CBFBFFF7A4FCFFF74DFD0020F7
:1042800006B070BD002070470120704770B53C211A
:10429000214A01EA90001E4908581E49FFF7E6FD31
:1042A0001E49B0FBF1F4FDF71FFDB0F5007F09D109
:1042B0001D49002003280FD031F8102094420DD959
:1042C0000130F7E716490020032805D031F8102007
:1042D000944203D90130F7E7002502E0114951F873
:1042E0002050124E306820F007002843FFF76FFC83
:1042F0000446306800F00700A84204BF002070BDEB
:10430000FDF742FC001B032824BF032070BDF0E72B
:104310008C810008080100587080000840420F009E
:104320004E80000854800008488000080040005873
:104330001CB50021019101684A68520709D44A68F6
:1043400022F040024A600169002421F00801016165
:104350002DE00A6842F080420A600A6822F080423A
:104360000A6002220192019A013A0192019AA2B1D5
:104370000A685200F7D44A68520603D54A6822F008
:1043800040024A6002220192019A013A0192019A86
:104390001AB14A685207F7D4D5E701240021C46056
:1043A0008160016941F002010161FEF7AFF9204629
:1043B0001CBD00000148FEF797BA00BFC01B0020DB
:1043C0000928014698BF0921CAB20A23B2FBF3F2B9
:1043D00002EB8203A1EB4303591A084440EA02109E
:1043E000C0B270472DE9F041114F80463868400651
:1043F00019D438680025012440F080003860FDF7AA
:10440000C3FB06463868E14341EA9010C0070BD170
:10441000FDF7BAFB801BB0F57A7FF3D903250024A2
:10442000C8F83050EEE700252846BDE8F08100BF0F
:104430000C280040B0B5114D044655F80C0C20F086
:10444000800045F80C0C2868800605D4FEF774FB44
:1044500060B103202063B0BD286820F020002860F0
:10446000FEF76AFB20B10320206302E00020B0BD0C
:104470000020296841F020012960B0BD18280040C3
:104480000120704760B1074A0021B02907D0535876
:1044900008318342F9D9501810F8040C7047FEE730
:1044A0001F207047DC80000880B501F059F80438FF
:1044B00003288EBF002002A151F8200080BD00BF5C
:1044C00002000000010000000000000003000000E6
:1044D00080B501F09BF8033080BD00007CB5C14E73
:1044E000C14900253446C1E902550D7101C4174880
:1044F00001F0ECF8002000F05FFA01F0ADFA0020C6
:10450000002101F037F901200021042201F0C0FB55
:10451000FFF72AFB00F02EFE0D4B20464FF0FF3137
:104520000022009503F0DEF9009506F12005094B05
:104530004FF0FF310022284603F0D4F9204603F063
:1045400099FA2846BDE87C4003F094BA2947000850
:104550004547000835470008BCB5F74CD4F8900033
:10456000B0F5007F3AD0022847D020287BD04028E1
:1045700013D080281BD0B0F5807F23D0012840F0D5
:104580008D80EE4C201D03F075FAFFF715FC2068B6
:10459000002800F0838000687EE0207908B9FFF7EA
:1045A0000BFCE6480068002878D0006974E0FFF74B
:1045B00003FCE2480068002870D0816900296DD0B2
:1045C000002009E0FFF7F8FBDC480068002865D010
:1045D0008169002962D001208847BCBD00F0C0FF7E
:1045E00004284BD1D54C201D03F044FAFFF7E4FB1F
:1045F0002068002852D040684EE0D04D05F12000E0
:1046000003F038FA207980B9FFF7D6FB40F60210A4
:10461000002101F0A1FB40F6441001F08FF840F0BA
:10462000020140F6441001F097FB1D480DF107010F
:10463000FF2200F0D3FF04F1500000F095FF28683E
:1046400060B3856855B3206D9DF80710012807BF3A
:1046500094F95D3094F95C2094F9583094F9552020
:104660000F48A847BCBDB54D05F1200003F002FA84
:10467000207908B9FFF7A0FB28680BE000F070FF75
:1046800005280BD1AD4C04F1200003F0F3F9FFF73E
:1046900093FB206810B1C06800B18047BCBD00BF6B
:1046A000A10500202DE9F0418AB01C461546884638
:1046B000074600F068FD0020002600F057F9384654
:1046C00001F0DAF9012041464FF416720023CDE9DA
:1046D0000266CDE90466CDE90666CDE908600320EF
:1046E000CDE90080002000F083F9002000F046F8BA
:1046F000FFF7EEFEFDF764F803F00EF906463046CC
:1047000003F014F90746A04203D200F0B3FFA84219
:10471000F5DD0025A74228BF012500F034FD28461D
:104720000AB0BDE8F0810000B049C1F89000FFF781
:1047300013BF00BF8148006810B1C06800B10047D6
:10474000704700BF7D48006810B1406800B1004765
:10475000704700BF80B5FFF7B4FC00200021FFF7D1
:104760005FFABDE8804000F053BF00F0E7BF00F003
:10477000F1BF80B500F07EFF80BD0000B0B50446FB
:10478000FFF7F2F92CB16D48FFF7AEFB284603F0B6
:104790003BF9964CFFF7AAFC21796FF07F40E26865
:1047A000002908BF9001BDE8B04001F095B900BFF5
:1047B000B0B50446FFF7D8F92CB16048FFF794FB79
:1047C000284603F021F9894CFFF790FC21796FF01E
:1047D0007F40E268002908BF9001BDE8B04001F0C9
:1047E0008DB900BF6C000020B00600202DE9F04F0D
:1047F00089B08A46064640F2012040F20121FFF7C7
:104800000FFADFF8008B012198F8940001F0ECF921
:10481000D8F80000032800F28180DFE800F00205EC
:104820000A1688F82CA001E088F844A008F11400CA
:1048300005E00221404640F8141F80F824A001F052
:104840008BF830465146002266E0EB46232158465D
:10485000FBF7EBFC0020514632465B4639B1177836
:1048600003F8010B0139FF4302F8017BF6E74FEA39
:10487000CA07002007210022974216D0C2F3C704BE
:1048800021EA02030132345D24FA03F321EA02042F
:1048900003F001035840C3B2A340C2F3C7041BF89E
:1048A00004502B430BF80430E6E7C10146460AF1F9
:1048B000010941EA8011C0B2B0FA80F0400941EA32
:1048C00040100BF80A00022046F8140F304686F814
:1048D000249001F041F8746EE74EF1200021B047BA
:1048E000F0200021B047E121642C08BF7021F320A3
:1048F000B0470421642C08BF1D21F220B0474FEAC5
:104900005A11F420B047B81CC1B2F520B0475FFA85
:1049100089F158466FF07F4200F022FF0748D8F82F
:104920000810041D204603F057F8204603F06CF8E9
:1049300009B0BDE8F08F00BFB00600206C00002079
:1049400001F09AB8D54A012802D102F1440005E0ED
:10495000906A012818BF704702F12C000170C3480B
:10496000017002F1140000F0F7BF00BFB0B5CB4CEE
:10497000012820600AD0032803D0042815D1002084
:1049800000E00220BDE8B04001F04CB8012001F089
:1049900049F8207C617C81420CD06074002818BFEB
:1049A0000120BDE8B04000F007B80020002501F06C
:1049B00039F86574B0BD00BF10B50446B7484474FB
:1049C0000474FFF77EFB14214FF4E860002C18BF3D
:1049D000342101F0C1F9242140F24170002C18BFAC
:1049E0004421BDE8104001F0B7B900BFB006002077
:1049F0002DE9F04F85B01446DDE911820D46DFF850
:104A000004B917991F46994BDDF84090DDF83CA09A
:104A1000B8F1000F8BF8041008BF4FF0FF321A7086
:104A2000002918BF4FF0000900286AD0012800F0C3
:104A3000B380042840F017810120984601F0C8F89F
:104A400009204FF4487100275E46CBF870002846D5
:104A5000CBE91A4146F8647FFFF714FD5D4645F83F
:104A6000147F85F860001020C5E90477AF602873D3
:104A70004FEACA00A8800120C5E9070798F800009E
:104A800028760420FFF772FFFFF7FEFA284600F0B1
:104A900063FF42F2B270CDF80E70ADF81270ADF84F
:104AA0000C0003A801F0B6F8FFF794FA714E40F637
:104AB000B800B047704D00F0EF0140F6B800A847CD
:104AC00040F6B9000421A84740F69B00B04700F02B
:104AD000E30000F1080140F69B00A84740F2D160D6
:104AE000B04740F0180140F2D160A84740F2AC60F6
:104AF000B04700F08F0000F1500140F2AC60A847D1
:104B000043E00020002701F063F80B205E46CBF85D
:104B10006840CBF87000284646F8647FFFF7B2FC87
:104B20005D46139945F8147F85F8600088F0010010
:104B3000C5E90470182028730420A8604FEACA0051
:104B4000A880012000294FF0010118BFF221C5E91A
:104B5000071046480078287600F015FB30680028DA
:104B600018BF0120FFF702FFFFF78EFA284600F07A
:104B7000F3FEC120CDF807708DF80B70FFF755FAE2
:104B800001A801F047F8FFF725FA4FF4FA5009FBA6
:104B900000F0B0FBF4F064E000204FF0000B01F0F7
:104BA00017F83349A54E012085F00103BAF10C0F27
:104BB00051F8251046F8640F776246F8248CC6E950
:104BC0000741514698BF0C21621F022A28BF514657
:104BD00026F8281C84F00C02139946F81C1C169920
:104BE00046F8181CFB49097806F8201CA4F10B01B3
:104BF0003446022938BF4FF0010BB5FA85F144F86D
:104C0000500D1A434909B2FA82F201EA0B01DFF8AA
:104C1000F4B65209114386F8281000F0B4FA30684F
:104C2000002818BF0120FFF7A1FEFFF72DFA20464C
:104C300000F092FE5FFA89F000F0F6FD56F8180CCD
:104C4000441E40F2367018BF012400F077FD00F0DA
:104C5000FB0040EA840140F2367001F07DF84FF627
:104C6000FF70CBF80C0005B0BDE8F08F16000020F7
:104C7000D08000083D570008595D0008B0B50546D2
:104C8000D3480C46002190F8940000F0ADFF284670
:104C90002146BDE8B04000F04FBF00BFB006002085
:104CA0002DE9FE430D46002A1146C94C1E4618BF89
:104CB00001210027002A2171CDE9007718BF3E4667
:104CC000012812D0002840F0B580E86870B3286948
:104CD00060B3287E082829D800216A46884228D057
:104CE000EB695B5C53540131F8E7B5F85000E8B16B
:104CF000686D01280CBF2F6AFF27E86B002818BFDA
:104D0000012000F065FFF0B200F08EFD0120E96C9B
:104D100005F1400304F1800660660DCB0DC669B154
:104D200002290DD0012913D101200FE04FF0FF37E8
:104D300080E0E86AC8B34FF0FF0938E0002005E0E2
:104D4000A0F10B010020022938BF012084F88C005B
:104D50000120D5E9171244F8140FB5F8500084F873
:104D60003070C4E90D122085686DE06200F00BFA26
:104D7000FFF7A7F904F1500000F076FD204600F09F
:104D8000EBFDA06B451E40F2367018BF012500F008
:104D9000D5FC00F0FB0040EA850140F2367000F0DF
:104DA000DBFF4FF6FF70002742E0D5F8209028681F
:104DB000002818BF012000F00BFFD5E90110EA68B8
:104DC0000027A04648F8647FA2662167FFF75AFBD8
:104DD00044F8147FE96A84F86000686984F81890E0
:104DE000A060A86AC4E90401286BA96BC4E90701A3
:104DF000288AC000A080287EC000207300F0C3F97C
:104E00000020FFF7B3FD404600F02EFD204600F0E5
:104E1000A3FD684600F0FEFEA88C00F07BFFA88E84
:104E200000F0C2FC4FF4FA50E9687043B0FBF1F0B7
:104E300044F8080C3846BDE8FE8300BFB0060020E9
:104E40002DE9FE4F149FDDF84080DDE90EA9DDF865
:104E500030B00E46054688B1012D53D0032D40F0E9
:104E600098800320FFF782FDC148022140F8641FAB
:104E70001621C0E905B100F0F7FC8AE00096BC4EAF
:104E80000B2014463067C6F868B018464FF0000B88
:104E9000374647F864BFFFF7F5FA46F814BF01211B
:104EA00086F860000120B465B8F1000F18BFF22148
:104EB000C6E9071089F00100C6E904B01820307374
:104EC0000420B0604FEACA00B08000F05CF9386896
:104ED000002818BF0120FFF749FD384600F0C4FC48
:104EE0003046009E00F038FDC120CDF807B08DF8A7
:104EF0000BB0149FFFF799F801A800F08BFEFFF7A5
:104F000069F846E000969A4E01201399EA4C0D9AF2
:104F1000BAF10C0F46F8140F54F82340C6E90D817E
:104F20002C497267C6F82C90ABF10502C6E91BB498
:104F30003446097886F83010514698BF0C21022A71
:104F400028BF514631850022ABF10B010229B3FA8B
:104F500083F138BF012283F0010344F8500F49095F
:104F600011408BF00C021A43B2FA82F2520911433B
:104F700086F8781000F007F92068002818BF012093
:104F8000FFF7F4FC204600F06FFC3046009E00F076
:104F9000E3FCDC4C85F00100D4F8841081F00601BC
:104FA00050EA010540F6890018BF012500F0C6FB54
:104FB00000F0FB0040EA850140F6890000F0CCFEDD
:104FC000304600F075FD84F89400A760BDE8FE8FC0
:104FD000B006002016000020B0B514460D4600F0C3
:104FE0004BFD284600F064FD012100F0FDFD4FF46B
:104FF0007A70444300F03EFE05482146051D2846D0
:1050000002F0EAFC2846BDE8B04002F0FDBC00BF5B
:105010006C0000202DE9FE4F0E4600219A461546F1
:105020000228CDE9001117D001281ED0002840F039
:105030009380B068A8B1D6F81090B9F1000F10D0E5
:10504000347D082C0DD800216A468C4250D0B369BB
:105050005B5C53540131F8E7B06810B1B0F57A7F6A
:1050600038D94FF0FF30BDE8FE8FA64F06F130046F
:1050700001201ECC002C47F8140F07F16C0CACE893
:105080000E00B6F840103985716CF962B16C796325
:10509000F16C3E46B96318BF012487F8784046F8A2
:1050A000500F00F070F8FFF70CF8FEF7EDFF3846F0
:1050B00000F052FC3C6F40F6890000F03FFB062CEC
:1050C0000CBF00F0FB0140F0040140F6890000F045
:1050D00043FE41E002200224FFF748FC89481621E4
:1050E00040F8644F8161316D416100F0BDFB33E0F8
:1050F000844F4FF0000BB866D6E90010B84648F868
:1051000064BF3967FFF7BEF947F814BFD6E9081244
:10511000F36A87F86000F068C7E904B1C7E90723BC
:10512000B865E00038730420B8604FEAC900B88061
:1051300000F029F80020FFF719FC404600F094FB2E
:10514000384600F009FC684600F064FDB08B00F0C2
:10515000E1FD308D00F028FB284600F0A9FC6949EC
:1051600081F894000020C1F808A0BDE8FE8F00BFC0
:10517000B006002080B5042000F0FCFC0220BDE851
:105180008040FCF71DBB002000F00EBD80B54FF441
:10519000C0704FF4C071FEF743FDBDE8804000F0E1
:1051A000F7BA0000F0B50DF1140C089E01289CE838
:1051B000901010D0002860D10CEB0400002E18BF16
:1051C00002302021002F18BF182101EBC0004FF43E
:1051D0007A71484353E019B9A2F10B00022804D3B5
:1051E0000020012908BF0C2A00D101201425002F1E
:1051F00018BF0025A5EB8205002E6FF0070618BF2B
:105200001035072A05EBCC0528BF08359700002884
:1052100018BF06EB82070C26072A38BF97003846CE
:10522000002DC8BF284401380C250C2C90FBF7F04A
:1052300088BF2646571F022F28BF2646072A38BF99
:105240000E25AC190433023A00FB03408000013004
:1052500090404FF47A725043174A52F821100022BE
:105260000A290CD8DFE801F006101316191B1D0BD4
:105270001F22250041F6846201E001220020104433
:105280000138B0FBF2F0F0BD43F60952F7E747F6FC
:105290001222F4E74FF22442F1E70A4AEFE7084A04
:1052A000EDE7064AEBE742F6B102E8E745F26112A4
:1052B000E5E74AF2C322E2E7D080000820A1070018
:1052C00090D0030048E8010080B500F0F1FB012117
:1052D00000F08AFCBDE8804000F0CCBC80B50948F5
:1052E000012190F8940000F07FFC4FF4D7602D214D
:1052F00000F032FD00F0C4FC0348BDE8804000F03F
:10530000A7BC00BFB0060020FFFF0F0000F024BDC7
:1053100000F02EBD10B50446FEF7B4FF012818BFFB
:1053200010BD40F6231000F009FA00F0F90040EA41
:10533000040140F62310BDE8104000F00DBD000050
:1053400000210D4AB0F5803F38BF012138BF00046D
:105350000901B0F1807F3CBF08310002B0F1805FED
:1053600038BF043138BF0001000F81F01F01105C0D
:10537000081AC0B2704700BFD8820008074940F43D
:1053800041700A6822F040020A6008604FF4B85089
:105390004860086840F0400008607047000001580D
:1053A000B8B5484CFEF739FE284B0092009A3AB146
:1053B000009A013A00921A689207F7D5002201E09C
:1053C00001220261FF251D7164252468C4EBC40419
:1053D000C4F34C446C430094009C34B1009C013CE9
:1053E00000941C68E407F7D001E0012202615868CC
:1053F00008701046B8BD00BF18B5324CFEF70DFE60
:10540000124B0092009A3AB1009A013A00921A683F
:105410009207F7D5002201E001220261197121688B
:105420006424C1EBC101C1F34C4161430091009977
:1054300031B10099013900911968C907F7D001E02D
:10544000012202615868104618BD00BF08000158CB
:10545000B0B50446007901280BD1084D286820F426
:10546000004028600120FCF7ABF9286840F40040B8
:1054700028602046BDE8B04000F006B8900400580F
:10548000E848FDF7F7BB00BF81B00E496422096808
:1054900001EB4101C1F34B41514300910A490A68B4
:1054A000009B53B1009B9208013B00930B6802EAFA
:1054B0005302D207F3D1002002E002210161012052
:1054C00001B070471800002014040058E0B500F047
:1054D0007F000DF10702892101238DF80700E148C3
:1054E000FDF786FB8CBD00BFE0B51849884204D3A8
:1054F000E1208DF80600E9201EE01549884204D31A
:10550000D7208DF80600DB2016E01249884204D32C
:10551000C1208DF80600C5200EE00F49884204D353
:1055200075208DF80600812006E00C49884205D3DD
:105530006B208DF806006F208DF80700C9480DF12B
:10554000060298210223FDF753FB8CBD01E9A43527
:1055500081F8A9328144E52D010B6B1B41FC5419E4
:10556000A148C068704700BF1CB50446BD480DF196
:10557000050214210323FDF711FBED480169012900
:10558000216010D009BB9DF805009DF806109DF81C
:10559000072020710020A06048424008A0715042BE
:1055A000400860711CBD40689DF8071020619DF89F
:1055B00005004042400820739DF906000230800833
:1055C000607348424008A0731CBD2046002114228D
:1055D00002F0E4F80F2020601CBD00BF7CB50E4631
:1055E000044600200DF1070115468DF807003046EE
:1055F00000F04EF83278AA4284BF01207CBD9DF8AD
:105600000700214600F094F800207CBDFEF70CBE98
:105610007CB50020019040F6E20000F08FF8144EB7
:10562000044600F0FE0140F6E200B04740F6E50017
:1056300000F084F8054600F07F0140F6E500B04731
:105640006FF07F4000F048FA01A940F619000422EB
:1056500000F080F8002000F0A7FA40F6E2002146B2
:10566000B04740F6E5002946B04701987CBD00BF31
:10567000595D0008E0B5EA480DF107021521012344
:10568000FDF78CFA9DF80700404240108CBD00BF2A
:10569000BCB50546EC480C460DF106021321022369
:1056A000FDF77CFAE7480169012907D14069012823
:1056B00004D140F2027000F041F801E09DF80600CC
:1056C00028709DF807002070BCBD00BF10B508B160
:1056D000DC4988600220FFF71DFEFEF7F5F8D94C83
:1056E00000202070002000F05FFAFEF7CDFD0128B9
:1056F0000ED1FEF799FD8101062000F095FA40F6E3
:105700001110002100F028FB7F20FFF7DFFE09E0E9
:1057100040F61110202100F01FFB40F6121020214E
:1057200000F01AFBFEF782FD0120E06010BD00BF13
:1057300013460A460146F048FDF750BBE0B5014666
:10574000ED480DF107020123FDF772FB9DF80700FC
:105750008CBD00BF13460A460146E748FDF768BB0B
:1057600010B5144600F072F92046BDE8104000F074
:105770006FBA0000E0B58DF80600EE488DF807100E
:105780000DF106028F210223FDF732FA8CBD00BF16
:1057900080B5E848C52100220023FDF729FAE44836
:1057A0000721C16080BD00BFE0B540BAADF806007A
:1057B000EF48006900B18CBD0DF1060140F2BE60FA
:1057C000022200F0D5FA8CBDE0B540BAADF8060073
:1057D000F448006900B18CBD0DF1060140F2BC60D7
:1057E000022200F0C5FA8CBDA8000020E0B58DF8BB
:1057F0000100000A8DF807301B0A8DF80520120AF7
:105800008DF80310090A8DF80000EF488DF8063076
:105810008DF804208DF802106A4608210823FDF750
:10582000E7F98CBDFC1B0020E0B58DF80700ED48C2
:105830000DF10702A021FEF79FF99DF8070040280F
:105840000ED341080020CAB2202A02D301309108A9
:10585000F9E700EBC100C1B240F2067000F07CFA3B
:105860008CBD00BFFC1B00201CB5D849044600209D
:10587000CDE9000020680969814202D000F0D2F829
:105880002168032952D8DFE801F002243339221DB0
:10589000002307CA8DF80320227C8DF80420254AB6
:1058A000B2FBF0F0020A8DF80200000C8DF8012026
:1058B0007E4A8DF800004806C909FAF759FC010A2A
:1058C0008DF80700000C08238DF806108DF80500F0
:1058D00027E004F11C02042307CA8DF801108DF89B
:1058E00002208DF8000094F828008DF8030018E0DD
:1058F000D4E9050104238DF8031007E0E16860682E
:1059000005238DF80310217C8DF804100949B1FBA3
:10591000F0F0010A8DF80200000C8DF801108DF8EE
:105920000000DA486A468B21FDF762F91CBD00BF12
:10593000A80000200000093DE0B58DF80400D34820
:105940008DF807308DF805108DF8062001AA9521F5
:105950000423FDF74DF98CBDBFB5C54D04460020AD
:105960008DF80C00CDE9010020682969814202D040
:1059700000F058F82168032951D8DFE801F002113E
:105980002202E069F22822D0F12829D14FF6FF70D7
:10599000FFF71AFF48F20500FFF706FF02201FE09D
:1059A000E06A062368618DF8060094F830008DF8EF
:1059B0000700D4E90D018DF80800208D8DF809103D
:1059C00024E094F8240001238DF8040022E041F63D
:1059D0000F50FFF7F9FE41F22100FFF7E5FE062028
:1059E0008DF80B00A06809238DF80600207B8DF848
:1059F0000700D4E904018DF80800207E8DF8091015
:105A00008DF80A00206A8DF80C00A08800BA000CFE
:105A1000ADF80400D94801AA8C21FDF7E9F8BFBD13
:105A2000FC1B0020E0B5C8490190086120B940F294
:105A3000AC60002100F090F9D04801AA8A21FEF75D
:105A40009BF88CBDA8000020FC1B00200A460146E4
:105A5000002000F07BB90000E0B5FEF713FC013830
:105A600096210123B0FA80F040090190C34801AAB1
:105A7000FDF7BEF88CBD00BFBCB5B34D0446287819
:105A800020B92046FFF730FD01202870074A600644
:105A9000E1090023FAF76CFB00BA86210423019088
:105AA000B64801AAFDF7A4F8BCBD00BF0048E80154
:105AB000B0B50446FEF7B6FB022805D0012520B993
:105AC0000F2CC8BF022500E00225284621460222ED
:105AD00000F0DEF82846B0BDE0B59B490522FEF790
